:100000000C9463000C948B000C948B000C94D10422
:100010000C94D1040C94D1040C948B000C948B00A0
:100020000C948B000C948B000C948B000C94490561
:100030000C948B000C948B000C948B000C948B0014
:100040000C9487040C948B000C9455040C942F048E
:100050000C948B000C948B000C948B000C948B00F4
:100060000C948B000C948B000000000024002700EF
:100070002A0000000008000201000003040700003D
:1000800000000000000000000000230026002900FE
:1000900000000000250028002B00040404040404D0
:1000A0000404020202020202030303030303010227
:1000B00004081020408001020408102001020408F6
:1000C000102065067F0911241FBECFEFD8E0DEBFE8
:1000D000CDBF11E0A0E0B1E0EEE1F8E102C0059093
:1000E0000D92A436B107D9F722E0A4E6B1E001C031
:1000F0001D92A93AB207E1F710E0C2E6D0E004C0D1
:100100002197FE010E94FC0BC136D107C9F70E945E
:1001100032070C94020C0C940000AF92BF92CF9265
:10012000DF92EF92FF920F931F93CF93DF936C01B7
:100130007B018B01040F151FEB015E01AE18BF0898
:10014000C017D10759F06991D601ED91FC9101904A
:10015000F081E02DC6010995892B79F7C501DF9162
:10016000CF911F910F91FF90EF90DF90CF90BF90B4
:10017000AF900895FC01538D448D252F30E0842FDE
:1001800090E0821B930B541710F0CF9608950197BF
:100190000895FC01918D828D981761F0A28DAE0FAC
:1001A000BF2FB11D5D968C91928D9F5F9F73928F33
:1001B00090E008958FEF9FEF0895FC01918D828D5F
:1001C000981731F0828DE80FF11D858D90E008952C
:1001D0008FEF9FEF0895FC01918D228D892F90E084
:1001E000805C9F4F821B91098F73992708958BED37
:1001F00091E00E94EB0021E0892B09F420E0822F9E
:10020000089580E090E0892B29F00E94F700811189
:100210000C9400000895FC01A48DA80FB92FB11D06
:10022000A35ABF4F2C91848D90E001968F7399272C
:10023000848FA689B7892C93A089B1898C9183700A
:1002400080648C93938D848D981306C00288F38903
:10025000E02D80818F7D80830895EF92FF920F9330
:100260001F93CF93DF93EC0181E0888F9B8D8C8D62
:1002700098131AC0E889F989808185FF15C09FB756
:10028000F894EE89FF896083E889F9898081837019
:10029000806480839FBF81E090E0DF91CF911F91C8
:1002A0000F91FF90EF900895F62E0B8D10E00F5FE9
:1002B0001F4F0F731127E02E8C8D8E110CC00FB6BF
:1002C00007FCFACFE889F989808185FFF5CFCE0157
:1002D0000E940B01F1CFEB8DEC0FFD2FF11DE35AC6
:1002E000FF4FF0829FB7F8940B8FEA89FB898081DA
:1002F0008062CFCFCF93DF93EC01888D8823B9F054
:10030000AA89BB89E889F9898C9185FD03C0808120
:1003100086FD0DC00FB607FCF7CF8C9185FFF2CF9D
:10032000808185FFEDCFCE010E940B01E9CFDF91E7
:10033000CF91089590E0FC01EE58FF4F2491FC010D
:10034000E255FF4F3491FC01E656FF4FE491EE2356
:10035000C9F0222339F0233001F1A8F4213019F13A
:10036000223029F1F0E0EE0FFF1FE057FF4FA5917B
:10037000B4918FB7F894EC91611126C030953E236B
:100380003C938FBF08952730A9F02830C9F024305E
:1003900049F7809180008F7D03C0809180008F7726
:1003A00080938000DFCF84B58F7784BDDBCF84B5A9
:1003B0008F7DFBCF8091B0008F778093B000D2CF3C
:1003C0008091B0008F7DF9CF3E2BDACFCF93DF93B2
:1003D00090E0FC01E255FF4F249186569F4FFC01AF
:1003E00084918823D1F090E0880F991FFC01E8598F
:1003F000FF4FA591B491FC01E057FF4FC591D491F7
:1004000061110EC09FB7F8948C91E22FE0958E2376
:100410008C932881E223E8839FBFDF91CF910895D9
:100420008FB7F894EC91E22BEC938FBFF6CF3FB7E8
:10043000F8948091D3019091D401A091D501B0910D
:10044000D60126B5A89B05C02F3F19F00196A11D26
:10045000B11D3FBFBA2FA92F982F8827BC01CD010E
:10046000620F711D811D911D42E0660F771F881F6D
:10047000991F4A95D1F708958F929F92AF92BF929C
:10048000CF92DF92EF92FF924B015C010E94170224
:100490006B017C010E9417026C197D098E099F096E
:1004A000683E734081059105A8F321E0821A910806
:1004B000A108B10888EEC80E83E0D81EE11CF11C2B
:1004C00081149104A104B10429F7FF90EF90DF900B
:1004D000CF90BF90AF909F908F9008952091CC01C6
:1004E0003091CD012817390771F49091CB0180919B
:1004F000CA01981741F0E091CB01F0E0E657FE4FBA
:10050000808190E008958FEF9FEF08950895EF9216
:10051000FF920F931F93CF93DF93DC015C96ED90D6
:10052000FC905D97E114F10479F481E090E013967A
:100530009C938E93129790E080E0DF91CF911F9172
:100540000F91FF90EF9008955196ED91FC91529785
:1005500050968C915097982F90950FB75E962C914E
:100560005E97122F127021FD6095F894208111235F
:1005700019F1282B2083E7012197F1F728E0462F76
:1005800050E0308160FF1AC0382B3083E70121979B
:10059000F1F7BA0175956795215089F7112381F01C
:1005A0008081892380830FBF5C968D919C910197F8
:1005B000F1F781E090E0C1CF2923DCCF3923E5CFEB
:1005C0009081892BEFCF2091CC013091CD0128175C
:1005D000390771F48091CA012091CB0190E0805CD1
:1005E0009F4F821B910960E470E00E94D40B089534
:1005F00090E080E008952091CC013091CD01281742
:100600003907B9F49091CB018091CA01981789F00C
:10061000E091CB01F0E0E657FE4F80812091CB01C5
:1006200030E02F5F3F4F2F7333272093CB0190E0B3
:1006300008958FEF9FEF089590E080E008958F92E6
:100640009F92AF92BF92FF920F931F93CF93DF932E
:10065000FC01F0808BE08F1508F44AC0828108E528
:1006600012E0081B110987FD1395000F111F000FE1
:10067000111F8181C8E8D0E0C81BD10987FDD3953F
:10068000CC0FDD1FCC0FDD1F4E010D2E000CAA0874
:10069000BB089801012E000C440B550B2819390991
:1006A0004A095B09DB010E94C50924EB30E040E008
:1006B00050E00E949B09820E931EA41EB51E8C164C
:1006C0009D062CF0E801801691060CF4E4012297B7
:1006D000CC0FDD1F2FB7F8948F2D90E0FC01EE0FAB
:1006E000FF1FE80FF91FEA59FE4FD283C1832FBFC6
:1006F000DF91CF911F910F91FF90BF90AF909F908E
:100700008F9008951F93CF93DF93EC01162F88816C
:100710008C3008F04EC061E0812F0E94E601888194
:10072000282F30E0F901EE0FFF1FE20FF31FEA5907
:10073000FE4F1F736081607C612B608319821A8277
:100740002CE0622F0E94C80B829FB001112430E080
:1007500020E0AB01420F531FFA01EE0FFF1FE40F21
:10076000F51FEA59FE4F908196FD16C02F5F3F4F4F
:100770002C30310571F781110FC01092800082E09A
:10078000809381001092850010928400B19A80912C
:100790006F00826080936F00E8818E2F90E0FC01F3
:1007A000EE0FFF1FE80FF91FEA59FE4F80818064AA
:1007B00080838881DF91CF911F910895FC01019082
:1007C0000020E9F73197AF01481B590BBC0188E7BE
:1007D00092E00C948D008F929F92AF92BF920F93F4
:1007E0001F93CF93DF93CDB7DEB7A1970FB6F894E1
:1007F000DEBF0FBECDBF19A2423008F44AE08E0121
:100800000F5D1F4F842E912CB12CA12CA5019401BA
:100810000E94CD09E62FB901CA01EA30F4F4E05D87
:10082000D801EE938D01232B242B252B79F790E013
:1008300080E0109719F0CD010E94DE03A1960FB65B
:10084000F894DEBF0FBECDBFDF91CF911F910F9106
:10085000BF90AF909F908F900895E95CE1CF1F9279
:100860000F920FB60F9211242F933F934F935F93E4
:100870006F937F938F939F93AF93BF93EF93FF9368
:100880008BED91E00E940B01FF91EF91BF91AF9131
:100890009F918F917F916F915F914F913F912F9198
:1008A0000F900FBE0F901F9018951F920F920FB6CA
:1008B0000F9211242F938F939F93EF93FF93E091C7
:1008C000EB01F091EC018081E091F101F091F201F6
:1008D00082FD1BC090818091F4018F5F8F73209106
:1008E000F501821741F0E091F401F0E0E552FE4F8E
:1008F000958F8093F401FF91EF919F918F912F91AC
:100900000F900FBE0F901F9018958081F4CF1F920B
:100910000F920FB60F9211242F933F938F939F93B3
:10092000AF93BF938091CF019091D001A091D1015D
:10093000B091D2013091CE0123E0230F2D3758F52D
:100940000196A11DB11D2093CE018093CF019093FC
:10095000D001A093D101B093D2018091D3019091A5
:10096000D401A091D501B091D6010196A11DB11D70
:100970008093D3019093D401A093D501B093D60175
:10098000BF91AF919F918F913F912F910F900FBE8B
:100990000F901F90189526E8230F0296A11DB11DF8
:1009A000D2CF1F920F920FB60F9211242F933F9325
:1009B0004F935F936F937F938F939F93AF93BF9367
:1009C000EF93FF93E091CC01F091CD01309749F086
:1009D000A685B7858585968D91FF14C09C91892346
:1009E000A1F4FF91EF91BF91AF919F918F917F9172
:1009F0006F915F914F913F912F910F900FBE0F908C
:100A00001F9018959C91892361F7A389B4899C91C3
:100A10008589809589238C93868997890197F1F739
:100A2000608D718DA685B785558538E020E0CB01B6
:100A30000197F1F7822F90E095958795282F4C919B
:100A4000452309F02068315091F7868D81FD20956E
:100A50008091CA0190E001968F7399273091CB0164
:100A6000381799F0A091CA01B0E0A657BE4F2C9359
:100A70008093CA01828D938D0197F1F7A389B48980
:100A80008C919589892B8C93ACCF868D8160868FD4
:100A9000F1CF1F920F920FB60F9211242F933F9315
:100AA0004F935F936F937F938F939F93AF93BF9376
:100AB000CF93DF93EF93FF9380916401C091650121
:100AC000D0E087FF24C010928500109284008091AE
:100AD00064018F5F8093640180916401082E000C93
:100AE000990B8C179D0724F4809164018C30C4F11C
:100AF0008091840090918500049680349C4908F48C
:100B00007AC08091840090918500049676C080918F
:100B10006401082E000C990B8C179D07C4F6E09118
:100B200064018E2FEE0F990BFC01EE0FFF1FE80FF3
:100B3000F91FEA59FE4F808186FFC9CFE091640119
:100B40008E2FEE0F990BFC01EE0FFF1FE80FF91F20
:100B5000EA59FE4F808160E08F730E949A01B7CFFF
:100B60002091840030918500E09164018E2FEE0F7A
:100B7000990BFC01EE0FFF1FE80FF91FEA59FE4F1A
:100B800081819281820F931F9093890080938800C6
:100B9000E09164018E2FEE0F990BFC01EE0FFF1F09
:100BA000E80FF91FEA59FE4F808186FF11C0E091DE
:100BB00064018E2FEE0F990BFC01EE0FFF1FE80F63
:100BC000F91FEA59FE4F808161E08F730E949A01FC
:100BD000FF91EF91DF91CF91BF91AF919F918F9155
:100BE0007F916F915F914F913F912F910F900FBE29
:100BF0000F901F90189580E49CE990938900809352
:100C000088008FEF80936401E3CFCF92DF92EF9261
:100C1000FF920F931F93E82FF92F05C00150110980
:100C20002109310961F1908196239417B9F305C028
:100C3000015011092109310911F190819623941372
:100C4000F7CFC12CD12CE12CF12C0AC08FEFC81AA0
:100C5000D80AE80AF80A0C151D052E053F0579F09B
:100C600080818623841791F36C2D7D2D8E2D9F2DF1
:100C70001F910F91FF90EF90DF90CF90089560E06B
:100C800070E080E090E01F910F91FF90EF90DF9077
:100C9000CF900895FC01909165019C3098F481E01B
:100CA000890F809365019083892F90E0FC01EE0FFE
:100CB000FF1FE80FF91FEA59FE4F88EB9BE0928374
:100CC000818308958FEF80830895CF92DF92EF9212
:100CD000FF921092DE011092DD0198EEC92E93E092
:100CE000D92EE12CF12CC092DF01D092E001E092EC
:100CF000E101F092E20184E091E09093DC018093C5
:100D0000DB0185EC90E09093E8018093E70184ECAF
:100D100090E09093EA018093E90180EC90E0909359
:100D2000EC018093EB0181EC90E09093EE018093D5
:100D3000ED0182EC90E09093F0018093EF0186EC5E
:100D400090E09093F2018093F1011092F4011092DF
:100D5000F5011092F6011092F70186EA92E00E94E6
:100D60004A0683EA92E00E944A0680EA92E00E94E4
:100D70004A068DE992E00E944A068AE992E00E94C2
:100D80004A0687E992E00E944A0610927B0210927E
:100D90007A02C0927C02D0927D02E0927E02F092B2
:100DA0007F0286E191E0909379028093780210921D
:100DB0008F0210928E021092910210929002109265
:100DC00093021092920210929502109294026091F6
:100DD00096026E7F6D7F609396026695617081E0EA
:100DE000682780E00E949A0161E080E00E94E601AD
:100DF000EEEAF0E0E491E0938802EAE9F0E0E491C1
:100E0000F0E0EE0FFF1FE057FF4F85919491909314
:100E10008A028093890260E081E00E94E60180916D
:100E2000960281FD04C061E081E00E949A0181E0A8
:100E300080938402EFEAF0E0E491E0938502EBE92D
:100E4000F0E0E491F0E0EE0FFF1FEA57FF4F8591CD
:100E500094919093870280938602FF90EF90DF90A9
:100E6000CF900895789484B5826084BD84B5816004
:100E700084BD85B5826085BD85B5816085BD809165
:100E80006E00816080936E001092810080918100DD
:100E900082608093810080918100816080938100D5
:100EA000809180008160809380008091B100846097
:100EB0008093B1008091B00081608093B0008091F8
:100EC0007A00846080937A0080917A0082608093B7
:100ED0007A0080917A00816080937A0080917A0014
:100EE000806880937A001092C10061E08DE00E94DA
:100EF000E60160E08DE00E949A01E091EB01F09143
:100F0000EC0182E08083E091E701F091E80110823A
:100F1000E091E901F091EA018FEC80831092F301F6
:100F2000E091EF01F091F00186E08083E091ED0126
:100F3000F091EE01808180618083E091ED01F0917C
:100F4000EE01808188608083E091ED01F091EE01F7
:100F5000808180688083E091ED01F091EE018081D5
:100F60008F7D808361E08CE00E94E60160E088E094
:100F70000E94E60166E070E086EA92E00E94820349
:100F800065E070E083EA92E00E94820363E070E033
:100F900080EA92E00E94820369E070E08DE992E0CD
:100FA0000E9482036AE070E08AE992E00E94820374
:100FB0006BE070E087E992E00E948203C3E0D0E03A
:100FC00096EB292E90E0392E22EAA22E20E0B22EB6
:100FD00030E0832E30E0932E60E08CE00E949A0196
:100FE000CE010197F1F761E08CE00E949A0168EB75
:100FF0007BE080E090E00E943C0260E08CE00E9498
:101000009A01F1016491F5018491E82FF0E0EE0F6F
:10101000FF1FEA57FF4F8591949100E412E42FE0FF
:1010200030E0462F0E940506611571058105910586
:1010300029F06F5F7F4F8F4F9F4F9F700E949F0AD5
:1010400020E030E040E05FE30E94560B26E933E405
:101050004BE05DE30E94560B6093D7017093D8017B
:101060008093D9019093DA0184E291E00E94DE033B
:10107000C090D701D090D801E090D901F090DA016A
:1010800020E030E044E552E4C701B6010E94510B74
:1010900018165CF020E030E040E050E4C701B601F3
:1010A0000E946B0A18160CF448C082E491E00E947A
:1010B000DE038FE491E00E94DE0360E08DE00E9499
:1010C0009A0170E060E086EA92E00E941F0370E0FF
:1010D00060E08DE992E00E941F036CED75E080E016
:1010E00090E00E943C0270E060E083EA92E00E949F
:1010F0001F0370E060E08AE992E00E941F036CED3C
:1011000075E080E090E00E943C0270E060E080EAE0
:1011100092E00E941F0370E060E087E992E00E9485
:101120001F038114910409F457CF0E94F70088230C
:1011300009F452CF0E9400004FCF61E08DE00E9481
:101140009A01A7019601C701B6010E94C30B88232B
:1011500009F443C082E591E00E94DE038EE591E050
:101160000E94DE038FE491E00E94DE036AE570E0F6
:1011700086EA92E00E941F036AE570E08DE992E042
:101180000E941F036CED75E080E090E00E943C023D
:101190006DE270E083EA92E00E941F036DE270E06E
:1011A0008AE992E00E941F036CED75E080E090E018
:1011B0000E943C0270E060E080EA92E00E941F031F
:1011C00070E060E087E992E00E941F036CED75E03B
:1011D00080E090E00E943C02A4CF26013701E89411
:1011E00077F82FEF3FEF4FE75FE7C301B2010E94AF
:1011F000C30B81110DC02FEF3FEF4FE75FE7C30136
:10120000B2010E946B0A18161CF486E591E0A4CF87
:101210002FEF3FEF4FE75FE4C701B6010E94510B8C
:1012200018161CF48AE591E097CF2FEF3FEF4FE7B8
:101230005FECC701B6010E946B0A87FDF3CF20E087
:1012400030E0A901C701B6010E946B0A87FF09C0FF
:101250006DE288E792E00E948702F7FAF094F7F8CF
:10126000F0942AE037ED43EA5BE3C701B6010E9440
:10127000FF092B013C010E94700A6B017C010E9456
:101280009F0A9B01AC01C301B2010E94FE092B0120
:101290003C014AE0C701B6010E94EB036EE288E719
:1012A00092E00E94870220E030E040E251E4C30176
:1012B000B2010E94560B2B013C010E94700A6B0187
:1012C000F12CE12C4AE0C701B6010E94EB03C701F3
:1012D000B6010E949F0A9B01AC01C301B2010E94AA
:1012E000FE0920E030E040E251E40E94560B0E94EB
:1012F000700A90E080E04AE00E94EB032FCF86E185
:1013000091E090937902809378028091CC01909142
:10131000CD018857924071F4E0918B02F0918C02DC
:10132000908180918D028095892380831092CD01D8
:101330001092CC010895052E97FB1EF400940E9494
:10134000B20957FD07D00E94CD0907FC03D04EF427
:101350000C94B20950954095309521953F4F4F4FD1
:101360005F4F089590958095709561957F4F8F4F51
:101370009F4F08950E94EF09A59F900DB49F900D77
:10138000A49F800D911D11240895B7FF0C94BA09F4
:101390000E94BA09821B930B0895A1E21A2EAA1B80
:1013A000BB1BFD010DC0AA1FBB1FEE1FFF1FA21715
:1013B000B307E407F50720F0A21BB30BE40BF50B12
:1013C000661F771F881F991F1A9469F7609570959B
:1013D000809590959B01AC01BD01CF010895A29F1E
:1013E000B001B39FC001A39F700D811D1124911DF9
:1013F000B29F700D811D1124911D08955058BB2777
:10140000AA270E94160A0C94170B0E94090B38F0A9
:101410000E94100B20F039F49F3F19F426F40C942D
:10142000060B0EF4E095E7FB0C94000BE92F0E94ED
:10143000280B58F3BA17620773078407950720F043
:1014400079F4A6F50C944A0B0EF4E0950B2EBA2F06
:10145000A02D0B01B90190010C01CA01A0011124BA
:10146000FF27591B99F0593F50F4503E68F11A1666
:10147000F040A22F232F342F4427585FF3CF4695F7
:1014800037952795A795F0405395C9F77EF41F1619
:10149000BA0B620B730B840BBAF09150A1F0FF0FE3
:1014A000BB1F661F771F881FC2F70EC0BA0F621FCF
:1014B000731F841F48F4879577956795B795F795BF
:1014C0009E3F08F0B0CF9395880F08F09927EE0F54
:1014D0009795879508950E94DC0A08F481E00895A5
:1014E0000E94300B88F09F5798F0B92F9927B75179
:1014F000B0F0E1F0660F771F881F991F1AF0BA95B8
:10150000C9F714C0B13091F00E944A0BB1E00895C0
:101510000C944A0B672F782F8827B85F39F0B93FB2
:10152000CCF3869577956795B395D9F73EF490956A
:101530008095709561957F4F8F4F9F4F0895E894E8
:1015400009C097FB3EF490958095709561957F4F0B
:101550008F4F9F4F9923A9F0F92F96E9BB279395B9
:10156000F695879577956795B795F111F8CFFAF4C9
:10157000BB0F11F460FF1BC06F5F7F4F8F4F9F4FFA
:1015800016C0882311F096E911C0772321F09EE858
:10159000872F762F05C0662371F096E8862F70E0BE
:1015A00060E02AF09A95660F771F881FDAF7880F98
:1015B0009695879597F90895990F0008550FAA0BEE
:1015C000E0E8FEEF16161706E807F907C0F0121656
:1015D0001306E407F50798F0621B730B840B950B59
:1015E00039F40A2661F0232B242B252B21F40895AE
:1015F0000A2609F4A140A6958FEF811D811D08954B
:1016000097F99F6780E870E060E008959FEF80ECB5
:10161000089500240A941616170618060906089558
:1016200000240A9412161306140605060895092EBE
:101630000394000C11F4882352F0BB0F40F4BF2B2D
:1016400011F460FF04C06F5F7F4F8F4F9F4F08956D
:1016500057FD9058440F551F59F05F3F71F0479563
:10166000880F97FB991F61F09F3F79F08795089548
:10167000121613061406551FF2CF4695F1DF08C067
:10168000161617061806991FF1CF86957105610584
:1016900008940895E894BB2766277727CB0197F92C
:1016A00008950E94DC0A08F48FEF08950E94690BE8
:1016B0000C94170B0E94090B38F00E94100B20F0BD
:1016C000952311F00C94000B0C94060B11240C9430
:1016D0004B0B0E94280B70F3959FC1F3950F50E0C0
:1016E000551F629FF001729FBB27F00DB11D639FD4
:1016F000AA27F00DB11DAA1F649F6627B00DA11D7A
:10170000661F829F2227B00DA11D621F739FB00D1F
:10171000A11D621F839FA00D611D221F749F33278F
:10172000A00D611D231F849F600D211D822F762F28
:101730006A2F11249F5750409AF0F1F088234AF005
:10174000EE0FFF1FBB1F661F771F881F9150504071
:10175000A9F79E3F510580F00C94000B0C944B0BA5
:101760005F3FE4F3983ED4F3869577956795B795F8
:10177000F795E7959F5FC1F7FE2B880F911D969512
:10178000879597F908950E94DC0A880B990B0895B4
:10179000991B79E004C0991F961708F0961B881FC3
:1017A0007A95C9F78095089597FB072E16F4009453
:1017B00007D077FD09D00E94E80B07FC05D03EF466
:1017C000909581959F4F0895709561957F4F0895ED
:1017D000AA1BBB1B51E107C0AA1FBB1FA617B70757
:1017E00010F0A61BB70B881F991F5A95A9F7809573
:1017F0009095BC01CD010895EE0FFF1F0590F49167
:10180000E02D099410E0C2E6D0E004C0FE010E9481
:0E181000FC0B2196C336D107C9F7F894FFCF21
:10181E00000000002D018D00BA007A01EB00C90016
:10182E00DD000000000087028D001C038602E3022B
:10183E00FB026E0248692C2074686973206973205C
:10184E00612073696D756C6174696F6E2074657358
:10185E0074004F7574206F662052616E6765000DBF
:10186E000A006E616E00696E66006F76660020205B
:04187E00636D000096
:00000001FF
